{
  "contractName": "Dex",
  "abi": [
    {
      "inputs": [
        {
          "internalType": "bytes32",
          "name": "ticker",
          "type": "bytes32"
        },
        {
          "internalType": "address",
          "name": "tokenAddress",
          "type": "address"
        }
      ],
      "name": "addToken",
      "outputs": [],
      "stateMutability": "nonpayable",
      "type": "function"
    },
    {
      "inputs": [
        {
          "internalType": "address",
          "name": "",
          "type": "address"
        },
        {
          "internalType": "bytes32",
          "name": "",
          "type": "bytes32"
        }
      ],
      "name": "balances",
      "outputs": [
        {
          "internalType": "uint256",
          "name": "",
          "type": "uint256"
        }
      ],
      "stateMutability": "view",
      "type": "function",
      "constant": true
    },
    {
      "inputs": [
        {
          "internalType": "uint256",
          "name": "amount",
          "type": "uint256"
        },
        {
          "internalType": "bytes32",
          "name": "ticker",
          "type": "bytes32"
        }
      ],
      "name": "deposit",
      "outputs": [],
      "stateMutability": "nonpayable",
      "type": "function"
    },
    {
      "inputs": [
        {
          "internalType": "uint256",
          "name": "",
          "type": "uint256"
        }
      ],
      "name": "tokenList",
      "outputs": [
        {
          "internalType": "bytes32",
          "name": "",
          "type": "bytes32"
        }
      ],
      "stateMutability": "view",
      "type": "function",
      "constant": true
    },
    {
      "inputs": [
        {
          "internalType": "bytes32",
          "name": "",
          "type": "bytes32"
        }
      ],
      "name": "tokenMapping",
      "outputs": [
        {
          "internalType": "bytes32",
          "name": "ticker",
          "type": "bytes32"
        },
        {
          "internalType": "address",
          "name": "tokenAddress",
          "type": "address"
        }
      ],
      "stateMutability": "view",
      "type": "function",
      "constant": true
    },
    {
      "inputs": [
        {
          "internalType": "uint256",
          "name": "amount",
          "type": "uint256"
        },
        {
          "internalType": "bytes32",
          "name": "ticker",
          "type": "bytes32"
        }
      ],
      "name": "withdraw",
      "outputs": [],
      "stateMutability": "nonpayable",
      "type": "function"
    },
    {
      "inputs": [
        {
          "internalType": "bytes32",
          "name": "ticker",
          "type": "bytes32"
        },
        {
          "internalType": "enum Dex.Side",
          "name": "side",
          "type": "uint8"
        }
      ],
      "name": "getOrderBook",
      "outputs": [
        {
          "components": [
            {
              "internalType": "uint256",
              "name": "id",
              "type": "uint256"
            },
            {
              "internalType": "address",
              "name": "trader",
              "type": "address"
            },
            {
              "internalType": "enum Dex.Side",
              "name": "side",
              "type": "uint8"
            },
            {
              "internalType": "bytes32",
              "name": "ticker",
              "type": "bytes32"
            },
            {
              "internalType": "uint256",
              "name": "amount",
              "type": "uint256"
            },
            {
              "internalType": "uint256",
              "name": "price",
              "type": "uint256"
            }
          ],
          "internalType": "struct Dex.Order[]",
          "name": "",
          "type": "tuple[]"
        }
      ],
      "stateMutability": "view",
      "type": "function",
      "constant": true
    }
  ],
  "bytecode": "0x608060405234801561001057600080fd5b50611076806100206000396000f3fe608060405234801561001057600080fd5b506004361061007d5760003560e01c80639ead72221161005b5780639ead7222146100ff578063a8d2021a1461012f578063ba58ea681461014b578063c9630cb01461017b5761007d565b80631f14df6914610082578063667cb4ba146100b25780639776aacf146100e3575b600080fd5b61009c600480360381019061009791906109a8565b610197565b6040516100a99190610a01565b60405180910390f35b6100cc60048036038101906100c79190610a1c565b6101bc565b6040516100da929190610a67565b60405180910390f35b6100fd60048036038101906100f89190610a90565b610200565b005b61011960048036038101906101149190610afc565b6102be565b6040516101269190610b29565b60405180910390f35b61014960048036038101906101449190610b44565b6102e2565b005b61016560048036038101906101609190610ba9565b610562565b6040516101729190610db7565b60405180910390f35b61019560048036038101906101909190610b44565b6106b1565b005b6002602052816000526040600020602052806000526040600020600091509150505481565b60006020528060005260406000206000915090508060000154908060010160009054906101000a900473ffffffffffffffffffffffffffffffffffffffff16905082565b60405180604001604052808381526020018273ffffffffffffffffffffffffffffffffffffffff168152506000808481526020019081526020016000206000820151816000015560208201518160010160006101000a81548173ffffffffffffffffffffffffffffffffffffffff021916908373ffffffffffffffffffffffffffffffffffffffff16021790555090505060018290806001815401808255809150506001900390600052602060002001600090919091909150555050565b600181815481106102ce57600080fd5b906000526020600020016000915090505481565b600073ffffffffffffffffffffffffffffffffffffffff1660008083815260200190815260200160002060010160009054906101000a900473ffffffffffffffffffffffffffffffffffffffff1673ffffffffffffffffffffffffffffffffffffffff16141561035157600080fd5b81600260003373ffffffffffffffffffffffffffffffffffffffff1673ffffffffffffffffffffffffffffffffffffffff16815260200190815260200160002060008381526020019081526020016000205410156103e4576040517f08c379a00000000000000000000000000000000000000000000000000000000081526004016103db90610e36565b60405180910390fd5b61044782600260003373ffffffffffffffffffffffffffffffffffffffff1673ffffffffffffffffffffffffffffffffffffffff1681526020019081526020016000206000848152602001908152602001600020546108e390919063ffffffff16565b600260003373ffffffffffffffffffffffffffffffffffffffff1673ffffffffffffffffffffffffffffffffffffffff16815260200190815260200160002060008381526020019081526020016000208190555060008082815260200190815260200160002060010160009054906101000a900473ffffffffffffffffffffffffffffffffffffffff1673ffffffffffffffffffffffffffffffffffffffff1663a9059cbb33846040518363ffffffff1660e01b815260040161050b929190610e56565b602060405180830381600087803b15801561052557600080fd5b505af1158015610539573d6000803e3d6000fd5b505050506040513d601f19601f8201168201806040525081019061055d9190610eb7565b505050565b606060036000848152602001908152602001600020600083600181111561058c5761058b610c33565b5b8152602001908152602001600020805480602002602001604051908101604052809291908181526020016000905b828210156106a557838290600052602060002090600502016040518060c0016040529081600082015481526020016001820160009054906101000a900473ffffffffffffffffffffffffffffffffffffffff1673ffffffffffffffffffffffffffffffffffffffff1673ffffffffffffffffffffffffffffffffffffffff1681526020016001820160149054906101000a900460ff16600181111561066257610661610c33565b5b600181111561067457610673610c33565b5b81526020016002820154815260200160038201548152602001600482015481525050815260200190600101906105ba565b50505050905092915050565b600073ffffffffffffffffffffffffffffffffffffffff1660008083815260200190815260200160002060010160009054906101000a900473ffffffffffffffffffffffffffffffffffffffff1673ffffffffffffffffffffffffffffffffffffffff16141561072057600080fd5b60008211610763576040517f08c379a000000000000000000000000000000000000000000000000000000000815260040161075a90610f30565b60405180910390fd5b6107c682600260003373ffffffffffffffffffffffffffffffffffffffff1673ffffffffffffffffffffffffffffffffffffffff1681526020019081526020016000206000848152602001908152602001600020546108f990919063ffffffff16565b600260003373ffffffffffffffffffffffffffffffffffffffff1673ffffffffffffffffffffffffffffffffffffffff16815260200190815260200160002060008381526020019081526020016000208190555060008082815260200190815260200160002060010160009054906101000a900473ffffffffffffffffffffffffffffffffffffffff1673ffffffffffffffffffffffffffffffffffffffff166323b872dd3330856040518463ffffffff1660e01b815260040161088c93929190610f50565b602060405180830381600087803b1580156108a657600080fd5b505af11580156108ba573d6000803e3d6000fd5b505050506040513d601f19601f820116820180604052508101906108de9190610eb7565b505050565b600081836108f19190610fb6565b905092915050565b600081836109079190610fea565b905092915050565b600080fd5b600073ffffffffffffffffffffffffffffffffffffffff82169050919050565b600061093f82610914565b9050919050565b61094f81610934565b811461095a57600080fd5b50565b60008135905061096c81610946565b92915050565b6000819050919050565b61098581610972565b811461099057600080fd5b50565b6000813590506109a28161097c565b92915050565b600080604083850312156109bf576109be61090f565b5b60006109cd8582860161095d565b92505060206109de85828601610993565b9150509250929050565b6000819050919050565b6109fb816109e8565b82525050565b6000602082019050610a1660008301846109f2565b92915050565b600060208284031215610a3257610a3161090f565b5b6000610a4084828501610993565b91505092915050565b610a5281610972565b82525050565b610a6181610934565b82525050565b6000604082019050610a7c6000830185610a49565b610a896020830184610a58565b9392505050565b60008060408385031215610aa757610aa661090f565b5b6000610ab585828601610993565b9250506020610ac68582860161095d565b9150509250929050565b610ad9816109e8565b8114610ae457600080fd5b50565b600081359050610af681610ad0565b92915050565b600060208284031215610b1257610b1161090f565b5b6000610b2084828501610ae7565b91505092915050565b6000602082019050610b3e6000830184610a49565b92915050565b60008060408385031215610b5b57610b5a61090f565b5b6000610b6985828601610ae7565b9250506020610b7a85828601610993565b9150509250929050565b60028110610b9157600080fd5b50565b600081359050610ba381610b84565b92915050565b60008060408385031215610bc057610bbf61090f565b5b6000610bce85828601610993565b9250506020610bdf85828601610b94565b9150509250929050565b600081519050919050565b600082825260208201905092915050565b6000819050602082019050919050565b610c1e816109e8565b82525050565b610c2d81610934565b82525050565b7f4e487b7100000000000000000000000000000000000000000000000000000000600052602160045260246000fd5b60028110610c7357610c72610c33565b5b50565b6000819050610c8482610c62565b919050565b6000610c9482610c76565b9050919050565b610ca481610c89565b82525050565b610cb381610972565b82525050565b60c082016000820151610ccf6000850182610c15565b506020820151610ce26020850182610c24565b506040820151610cf56040850182610c9b565b506060820151610d086060850182610caa565b506080820151610d1b6080850182610c15565b5060a0820151610d2e60a0850182610c15565b50505050565b6000610d408383610cb9565b60c08301905092915050565b6000602082019050919050565b6000610d6482610be9565b610d6e8185610bf4565b9350610d7983610c05565b8060005b83811015610daa578151610d918882610d34565b9750610d9c83610d4c565b925050600181019050610d7d565b5085935050505092915050565b60006020820190508181036000830152610dd18184610d59565b905092915050565b600082825260208201905092915050565b7f62616c616e6365206e6f742073756666696369656e7400000000000000000000600082015250565b6000610e20601683610dd9565b9150610e2b82610dea565b602082019050919050565b60006020820190508181036000830152610e4f81610e13565b9050919050565b6000604082019050610e6b6000830185610a58565b610e7860208301846109f2565b9392505050565b60008115159050919050565b610e9481610e7f565b8114610e9f57600080fd5b50565b600081519050610eb181610e8b565b92915050565b600060208284031215610ecd57610ecc61090f565b5b6000610edb84828501610ea2565b91505092915050565b7f6e6563657369746173206465706f7369746172206d7173206465203000000000600082015250565b6000610f1a601c83610dd9565b9150610f2582610ee4565b602082019050919050565b60006020820190508181036000830152610f4981610f0d565b9050919050565b6000606082019050610f656000830186610a58565b610f726020830185610a58565b610f7f60408301846109f2565b949350505050565b7f4e487b7100000000000000000000000000000000000000000000000000000000600052601160045260246000fd5b6000610fc1826109e8565b9150610fcc836109e8565b925082821015610fdf57610fde610f87565b5b828203905092915050565b6000610ff5826109e8565b9150611000836109e8565b9250827fffffffffffffffffffffffffffffffffffffffffffffffffffffffffffffffff0382111561103557611034610f87565b5b82820190509291505056fea2646970667358221220cbef89f94fc9bc697cce7a9dfa5285ffaf05201c1841bdfb2e9b7b8f33998cd664736f6c63430008090033",
  "immutableReferences": {},
  "source": "pragma solidity 0.8.9;\r\npragma abicoder v2;\r\n\r\nimport \"../Contracts/Wallet.sol\";\r\n\r\ncontract Dex is Wallet{\r\n\r\n    enum Side{\r\n        BUY,\r\n        SELL\r\n    }\r\n\r\n    struct Order{\r\n        uint id;\r\n        address trader;\r\n        Side side;\r\n        bytes32 ticker;\r\n        uint amount;\r\n        uint price;\r\n    }\r\n\r\n    mapping(bytes32=>mapping(uint=>Order[])) orderBook;\r\n\r\n    //no me queda claro el return del orderbook que no est definido en otro lado\r\n    function getOrderBook(bytes32 ticker, Side side)view public returns(Order[]memory){\r\n        return orderBook[ticker][uint(side)];\r\n    } \r\n\r\n}",
  "sourcePath": "C:\\Users\\ruchi\\Desktop\\dex\\contracts\\Dex.sol",
  "compiler": {
    "name": "solc",
    "version": "0.8.9+commit.e5eed63a.Emscripten.clang"
  },
  "schemaVersion": "3.4.3",
  "updatedAt": "2021-12-01T10:51:45.558Z",
  "networkType": "ethereum",
  "devdoc": {
    "kind": "dev",
    "methods": {},
    "version": 1
  },
  "userdoc": {
    "kind": "user",
    "methods": {},
    "version": 1
  }
}