{
  "contractName": "Wallet",
  "abi": [
    {
      "inputs": [
        {
          "internalType": "address",
          "name": "",
          "type": "address"
        },
        {
          "internalType": "bytes32",
          "name": "",
          "type": "bytes32"
        }
      ],
      "name": "balances",
      "outputs": [
        {
          "internalType": "uint256",
          "name": "",
          "type": "uint256"
        }
      ],
      "stateMutability": "view",
      "type": "function",
      "constant": true
    },
    {
      "inputs": [
        {
          "internalType": "uint256",
          "name": "",
          "type": "uint256"
        }
      ],
      "name": "tokenList",
      "outputs": [
        {
          "internalType": "bytes32",
          "name": "",
          "type": "bytes32"
        }
      ],
      "stateMutability": "view",
      "type": "function",
      "constant": true
    },
    {
      "inputs": [
        {
          "internalType": "bytes32",
          "name": "",
          "type": "bytes32"
        }
      ],
      "name": "tokenMapping",
      "outputs": [
        {
          "internalType": "bytes32",
          "name": "ticker",
          "type": "bytes32"
        },
        {
          "internalType": "address",
          "name": "tokenAddress",
          "type": "address"
        }
      ],
      "stateMutability": "view",
      "type": "function",
      "constant": true
    },
    {
      "inputs": [
        {
          "internalType": "bytes32",
          "name": "ticker",
          "type": "bytes32"
        },
        {
          "internalType": "address",
          "name": "tokenAddress",
          "type": "address"
        }
      ],
      "name": "addToken",
      "outputs": [],
      "stateMutability": "nonpayable",
      "type": "function"
    },
    {
      "inputs": [
        {
          "internalType": "uint256",
          "name": "amount",
          "type": "uint256"
        },
        {
          "internalType": "bytes32",
          "name": "ticker",
          "type": "bytes32"
        }
      ],
      "name": "deposit",
      "outputs": [],
      "stateMutability": "nonpayable",
      "type": "function"
    },
    {
      "inputs": [
        {
          "internalType": "uint256",
          "name": "amount",
          "type": "uint256"
        },
        {
          "internalType": "bytes32",
          "name": "ticker",
          "type": "bytes32"
        }
      ],
      "name": "withdraw",
      "outputs": [],
      "stateMutability": "nonpayable",
      "type": "function"
    }
  ],
  "bytecode": "0x608060405234801561001057600080fd5b50610c87806100206000396000f3fe608060405234801561001057600080fd5b50600436106100625760003560e01c80631f14df6914610067578063667cb4ba146100975780639776aacf146100c85780639ead7222146100e4578063a8d2021a14610114578063c9630cb014610130575b600080fd5b610081600480360381019061007c919061080e565b61014c565b60405161008e9190610867565b60405180910390f35b6100b160048036038101906100ac9190610882565b610171565b6040516100bf9291906108cd565b60405180910390f35b6100e260048036038101906100dd91906108f6565b6101b5565b005b6100fe60048036038101906100f99190610962565b610273565b60405161010b919061098f565b60405180910390f35b61012e600480360381019061012991906109aa565b610297565b005b61014a600480360381019061014591906109aa565b610517565b005b6002602052816000526040600020602052806000526040600020600091509150505481565b60006020528060005260406000206000915090508060000154908060010160009054906101000a900473ffffffffffffffffffffffffffffffffffffffff16905082565b60405180604001604052808381526020018273ffffffffffffffffffffffffffffffffffffffff168152506000808481526020019081526020016000206000820151816000015560208201518160010160006101000a81548173ffffffffffffffffffffffffffffffffffffffff021916908373ffffffffffffffffffffffffffffffffffffffff16021790555090505060018290806001815401808255809150506001900390600052602060002001600090919091909150555050565b6001818154811061028357600080fd5b906000526020600020016000915090505481565b600073ffffffffffffffffffffffffffffffffffffffff1660008083815260200190815260200160002060010160009054906101000a900473ffffffffffffffffffffffffffffffffffffffff1673ffffffffffffffffffffffffffffffffffffffff16141561030657600080fd5b81600260003373ffffffffffffffffffffffffffffffffffffffff1673ffffffffffffffffffffffffffffffffffffffff1681526020019081526020016000206000838152602001908152602001600020541015610399576040517f08c379a000000000000000000000000000000000000000000000000000000000815260040161039090610a47565b60405180910390fd5b6103fc82600260003373ffffffffffffffffffffffffffffffffffffffff1673ffffffffffffffffffffffffffffffffffffffff16815260200190815260200160002060008481526020019081526020016000205461074990919063ffffffff16565b600260003373ffffffffffffffffffffffffffffffffffffffff1673ffffffffffffffffffffffffffffffffffffffff16815260200190815260200160002060008381526020019081526020016000208190555060008082815260200190815260200160002060010160009054906101000a900473ffffffffffffffffffffffffffffffffffffffff1673ffffffffffffffffffffffffffffffffffffffff1663a9059cbb33846040518363ffffffff1660e01b81526004016104c0929190610a67565b602060405180830381600087803b1580156104da57600080fd5b505af11580156104ee573d6000803e3d6000fd5b505050506040513d601f19601f820116820180604052508101906105129190610ac8565b505050565b600073ffffffffffffffffffffffffffffffffffffffff1660008083815260200190815260200160002060010160009054906101000a900473ffffffffffffffffffffffffffffffffffffffff1673ffffffffffffffffffffffffffffffffffffffff16141561058657600080fd5b600082116105c9576040517f08c379a00000000000000000000000000000000000000000000000000000000081526004016105c090610b41565b60405180910390fd5b61062c82600260003373ffffffffffffffffffffffffffffffffffffffff1673ffffffffffffffffffffffffffffffffffffffff16815260200190815260200160002060008481526020019081526020016000205461075f90919063ffffffff16565b600260003373ffffffffffffffffffffffffffffffffffffffff1673ffffffffffffffffffffffffffffffffffffffff16815260200190815260200160002060008381526020019081526020016000208190555060008082815260200190815260200160002060010160009054906101000a900473ffffffffffffffffffffffffffffffffffffffff1673ffffffffffffffffffffffffffffffffffffffff166323b872dd3330856040518463ffffffff1660e01b81526004016106f293929190610b61565b602060405180830381600087803b15801561070c57600080fd5b505af1158015610720573d6000803e3d6000fd5b505050506040513d601f19601f820116820180604052508101906107449190610ac8565b505050565b600081836107579190610bc7565b905092915050565b6000818361076d9190610bfb565b905092915050565b600080fd5b600073ffffffffffffffffffffffffffffffffffffffff82169050919050565b60006107a58261077a565b9050919050565b6107b58161079a565b81146107c057600080fd5b50565b6000813590506107d2816107ac565b92915050565b6000819050919050565b6107eb816107d8565b81146107f657600080fd5b50565b600081359050610808816107e2565b92915050565b6000806040838503121561082557610824610775565b5b6000610833858286016107c3565b9250506020610844858286016107f9565b9150509250929050565b6000819050919050565b6108618161084e565b82525050565b600060208201905061087c6000830184610858565b92915050565b60006020828403121561089857610897610775565b5b60006108a6848285016107f9565b91505092915050565b6108b8816107d8565b82525050565b6108c78161079a565b82525050565b60006040820190506108e260008301856108af565b6108ef60208301846108be565b9392505050565b6000806040838503121561090d5761090c610775565b5b600061091b858286016107f9565b925050602061092c858286016107c3565b9150509250929050565b61093f8161084e565b811461094a57600080fd5b50565b60008135905061095c81610936565b92915050565b60006020828403121561097857610977610775565b5b60006109868482850161094d565b91505092915050565b60006020820190506109a460008301846108af565b92915050565b600080604083850312156109c1576109c0610775565b5b60006109cf8582860161094d565b92505060206109e0858286016107f9565b9150509250929050565b600082825260208201905092915050565b7f62616c616e6365206e6f742073756666696369656e7400000000000000000000600082015250565b6000610a316016836109ea565b9150610a3c826109fb565b602082019050919050565b60006020820190508181036000830152610a6081610a24565b9050919050565b6000604082019050610a7c60008301856108be565b610a896020830184610858565b9392505050565b60008115159050919050565b610aa581610a90565b8114610ab057600080fd5b50565b600081519050610ac281610a9c565b92915050565b600060208284031215610ade57610add610775565b5b6000610aec84828501610ab3565b91505092915050565b7f6e6563657369746173206465706f7369746172206d7173206465203000000000600082015250565b6000610b2b601c836109ea565b9150610b3682610af5565b602082019050919050565b60006020820190508181036000830152610b5a81610b1e565b9050919050565b6000606082019050610b7660008301866108be565b610b8360208301856108be565b610b906040830184610858565b949350505050565b7f4e487b7100000000000000000000000000000000000000000000000000000000600052601160045260246000fd5b6000610bd28261084e565b9150610bdd8361084e565b925082821015610bf057610bef610b98565b5b828203905092915050565b6000610c068261084e565b9150610c118361084e565b9250827fffffffffffffffffffffffffffffffffffffffffffffffffffffffffffffffff03821115610c4657610c45610b98565b5b82820190509291505056fea2646970667358221220927102b9aea84792fde99bf4697b1a376ceadc3f5cf0b1ff4ecbbdb107e75dfe64736f6c63430008090033",
  "immutableReferences": {},
  "source": "pragma solidity 0.8.9;\r\n\r\nimport \"../node_modules/@openzeppelin/contracts/token/ERC20/IERC20.sol\";\r\nimport \"../node_modules/@openzeppelin/contracts/utils/math/SafeMath.sol\";\r\n\r\ncontract Wallet {\r\n\r\n    using SafeMath for uint256;\r\n\r\n    struct Token{\r\n        bytes32 ticker;\r\n        address tokenAddress;\r\n    }\r\n\r\n    mapping(bytes32=>Token) public tokenMapping;\r\n    bytes32[]public tokenList;\r\n\r\n    mapping (address=>mapping(bytes32=>uint256)) public balances;\r\n\r\n\r\n\r\n    //mejor permitir que esto solo lo pueda hacer el owner\r\n    function addToken(bytes32 ticker, address tokenAddress) external {\r\n        tokenMapping[ticker] = Token(ticker,tokenAddress);\r\n        tokenList.push(ticker);\r\n    }\r\n\r\n    function deposit(uint amount, bytes32 ticker) external{\r\n\r\n        require(tokenMapping[ticker].tokenAddress!=address(0));\r\n        require(amount>0, \"necesitas depositar mqs de 0\");\r\n        \r\n        //deberamos aadir un allowance para antes de permitir que se depositen los fondos\r\n\r\n        balances[msg.sender][ticker]= balances[msg.sender][ticker].add(amount);\r\n        IERC20(tokenMapping[ticker].tokenAddress).transferFrom(msg.sender, address(this), amount);\r\n\r\n    }\r\n\r\n    function withdraw(uint amount, bytes32 ticker) external{\r\n\r\n        require(tokenMapping[ticker].tokenAddress!=address(0));\r\n        require(balances[msg.sender][ticker]>=amount, \"balance not sufficient\");\r\n        \r\n        balances[msg.sender][ticker]= balances[msg.sender][ticker].sub(amount);\r\n        IERC20(tokenMapping[ticker].tokenAddress).transfer(msg.sender,amount);\r\n    }\r\n\r\n}",
  "sourcePath": "C:\\Users\\ruchi\\Desktop\\dex\\contracts\\Wallet.sol",
  "compiler": {
    "name": "solc",
    "version": "0.8.9+commit.e5eed63a.Emscripten.clang"
  },
  "schemaVersion": "3.4.3",
  "updatedAt": "2021-11-30T11:35:17.299Z",
  "networkType": "ethereum",
  "devdoc": {
    "kind": "dev",
    "methods": {},
    "version": 1
  },
  "userdoc": {
    "kind": "user",
    "methods": {},
    "version": 1
  }
}